:1000000000308A004D280000B40134087C3C031CF9
:100010004228B5013508043C031C40283508370741
:1000200084008313381883170008B90083168601EB
:1000300083123908860020303507840083130008B6
:10004000B9000030B6008316870183123908870093
:100050001430B900393084008313000803193E2896
:100060000130F800F701F70B3328F80B32284A303B
:10007000F700F70B39283C28800B3028B50A0A28EE
:10008000B40A052883168601831286010030B60063
:1000900083168701831287010800FF30B60083169C
:1000A0001F149F141F159F1107309C0083131F30CE
:1000B000830510308312A0000830A1000430A20094
:1000C0000230A3000130A4008030A500F730A60064
:1000D000EB30A700DD30A800BE30A900FE30AA003A
:1000E000AB008030AC00FE30AD00AE00C030AF00E1
:1000F000BF30B000B100B200C030B3000030831692
:10010000860087008312B60083168601831286015B
:10011000B6008316870183128701B8012530B70026
:100120000420B8012A30B7000420B8012F30B700EE
:0601300004208D2863008D
:02400E00313F40
:00000001FF
;PIC16F877A
;CRC=510C  CREATED="08-Nis-24 15:55"
