:1000000096EF00F0156A166A010E176EDA6AD96A61
:100010001A6A0D0E196EEA6A110EE96E1AC0E2FF35
:1000200019C0E1FF17C018F0D890E550EE02F35068
:100030001522F4501622182EF7D715C0DEFF16C071
:1000400015F0166AD8B0162A192AD8B41A2A172A0F
:1000500017500508E0E15FEF00F0016A026A006AEC
:10006000036A135002E1125018E0100E146ED8907B
:1000700010361136003603361350035C02E112507D
:10008000005C07E31250005ED8A003061350035E25
:10009000D88001360236142EEAD7120009C010F0BB
:1000A00008C00FF007C00EF006C00DF0410E146E30
:1000B000C60E136E4E0E126E6D0E116EA3D7390E54
:1000C0000024066E300E0120076E000E0220086E1E
:1000D000000E0320096E08C000F009C001F0026A9A
:1000E000036A09C00FF008C00EF009C011F008C083
:1000F00010F07F0E136E1268B0DF00C001F003C075
:1001000002F01200EA6A0E0EE96EEF500EE0010EE8
:10011000016E006A002EFED7012EFBD74A0E006E3C
:10012000002EFED700D0EF2EF2D71200F86AD09E34
:10013000C180C182C184C1960B6A1B0E0A6E050E76
:100140001C6EE10E1B6E1E6A1D6A046A056AFF0EB4
:10015000926E936E000E946E800E946E8B6A000EFB
:10016000956E800E956E8C6ADF0E936E81A05DD1C8
:1001700095DF02C00EF001C00DF002C011F001C009
:1001800010F0136A0D0E126E68DF00C00CF00C50F8
:10019000010823E30C520FE181DF02C00EF001C021
:1001A0000DF002C011F001C010F0136A0D0E126EB6
:1001B00054DF00C00CF00C2C0FD070DF02C00EF02A
:1001C00001C00DF002C011F001C010F0136A0D0E55
:1001D000126E43DF00C00CF0DAD7020E0C5CF50F94
:1001E000D8B0FFD00B0F17EF02F0800E946E8B8605
:1001F000956E8C86040E0D6EFA0E0E6E83DF0D2E3C
:10020000FBD7EFD0800E956E8C86946E8B84946EA7
:100210008B88040E0D6EFA0E0E6E74DF0D2EFBD75A
:10022000E0D0800E946E8B84946E8B88956E8C8457
:10023000956E8C88040E0D6EFA0E0E6E63DF0D2E19
:10024000FBD7CFD0800E946E8B80946E8B86946E8D
:100250008B8C956E8C88956E8C84040E0D6EFA0EC8
:100260000E6E50DF0D2EFBD7BCD0800E946E8B80AF
:10027000946E8B86946E8B8C956E8C80956E8C862E
:10028000956E8C8C040E0D6EFA0E0E6E3BDF0D2EED
:10029000FBD7A7D0800E946E8B80946E8B82946E69
:1002A0008B8A946E8B8C956E8C80956E8C86956EF9
:1002B0008C8C040E0D6EFA0E0E6E24DF0D2EFBD705
:1002C00090D0800E946E8B80946E8B82946E8B8A0D
:1002D000946E8B8C956E8C80956E8C82956E8C8ACC
:1002E000956E8C8C040E0D6EFA0E0E6E0BDF0D2EBD
:1002F000FBD777D0800E946E8B80946E8B82946E39
:100300008B86946E8B8A946E8B8C956E8C80956E9A
:100310008C82956E8C8A956E8C8C040E0D6EFA0E06
:100320000E6EF0DE0D2EFBD75CD0800E946E8B80AF
:10033000946E8B82946E8B86946E8B8A946E8B8C6B
:10034000956E8C80956E8C82956E8C86956E8C8A5F
:10035000956E8C8C040E0D6EFA0E0E6ED3DE0D2E85
:10036000FBD73FD0800E946E8B80946E8B82946E00
:100370008B84946E8B88946E8B8A946E8B8C956E26
:100380008C80956E8C82956E8C86956E8C8A956E1F
:100390008C8C040E0D6EFA0E0E6EB4DE0D2EFBD795
:1003A00020D0800E946E8B80946E8B82946E8B84A2
:1003B000946E8B88946E8B8A946E8B8C956E8C80E9
:1003C000956E8C82956E8C84956E8C88956E8C8AD9
:1003D000956E8C8C040E0D6EFA0E0E6E93DE0D2E45
:1003E000FBD7800E946E8B90946E8B92946E8B9450
:1003F000946E8B96946E8B98946E8B9A946E8B9C65
:10040000956E8C90956E8C92956E8C94956E8C9664
:10041000956E8C98956E8C9A956E8C9C020E0D6ED6
:10042000FA0E0E6E6FDE0D2EFBD79ED60300E8246B
:10043000F76AF736490FF66E040EF7220A00F550F8
:10044000FA6E0800F550F96EEA0104022202440235
:0E0450006A029402C202F4022A036403A203A9
:020000040030CA
:0E00000000210C0E000181000FC00FE00F4028
:00000001FF
;PIC18F452
;CRC=E0A2  CREATED="18-Mar-24 15:08"
