:1000000016EF00F0EA6A060EE96EEF500EE0010E00
:10001000016E006A002EFED7012EFBD74A0E006E3D
:10002000002EFED700D0EF2EF2D71200F86AD09E35
:10003000010E046EC180C182C184C196000E936E10
:10004000936A8A6A936A04C08AFF040E056EFA0EE8
:10005000066ED8DF052EFBD781BE0DD0D8900436B2
:10006000936A04C08AFF040E056EFA0E066ECADF9C
:10007000052EFBD7F1D7040E056EFA0E066EC2DF11
:10008000052EFBD781B00DD0D8900432936A04C0FE
:100090008AFF040E056EFA0E066EB4DF052EFBD73E
:0600A000F1D7D3D70300E5
:020000040030CA
:0E00000000210C0E000181000FC00FE00F4028
:00000001FF
;PIC18F452
;CRC=9E0C  CREATED="12-Mar-24 14:31"
