:1000000000308A0019280000223084008313000881
:10001000031918280130F800F701F70B0D28F80B29
:100020000C284A30F700F70B13281628800B0A28F3
:10003000080083161F149F141F159F1107309C0082
:1000400083131F308305FF30850000308600C030E9
:10005000860083128601A1012108093C031C362871
:10006000C03083168600183083128600831605146C
:100070008312051C3F286430A2000420A10A210835
:100080000A3C031D4C282830A2000420C0308316EF
:100090008600053083128600831685148312851C22
:1000A00055282830A2000420A103831605158312C9
:1000B000051D62282830A2000420C0308316860067
:0800C000831286012C28630065
:02400E00313F40
:00000001FF
;PIC16F877A
;CRC=3D78  CREATED="26-Mar-24 15:39"
