:040000007CEF00F0A1
:08000800046ED8CF05F0E0CF33
:1000100006F00001E9CF0CF0EACF07F0E1CF08F0DD
:10002000E2CF09F0D9CF0AF0DACF0BF0F3CF12F01C
:10003000F4CF13F0FACF14F000C00EF001C00FF0AF
:1000400002C010F003C011F0F2A82AEF00F0F2B2E3
:100050005FEF00F00EC000F00FC001F010C002F022
:1000600011C003F00CC0E9FF07C0EAFF078E08C00B
:10007000E1FF09C0E2FF0AC0D9FF0BC0DAFF12C0DE
:10008000F3FF13C0F4FF14C0FAFF045006C0E0FFF2
:1000900005C0D8FF1000EA6A180EE96EEF500EE0B6
:1000A000010E016E006A002EFED7012EFBD74A0E0C
:1000B000006E002EFED700D0EF2EF2D71200166A87
:1000C0001650040816E3FE0E956E8C80020E176E15
:1000D000FA0E186EE0DF172EFBD7FE0E956E8C9091
:1000E000020E176EFA0E186ED6DF172EFBD7162AE1
:1000F000E7D7F2922AEF00F0F86AD09E078EC1800F
:10010000C182C184C196FF0E936E000E956EFE0EE5
:10011000956E8C6AF288C00EF212F18CFE0E956E0E
:060120008C80FCD70300F7
:020000040030CA
:0E00000000210C0E000181000FC00FE00F4028
:00000001FF
;PIC18F452
;CRC=1D81  CREATED="29-Nis-24 15:49"
