:1000000016EF00F0EA6A100EE96EEF500EE0010EF6
:10001000016E006A002EFED7012EFBD74A0E006E3D
:10002000002EFED700D0EF2EF2D71200F86AD09E35
:10003000C180C182C184C196FF0E926E936E000E84
:10004000946E3F0E056E060E066E5B0E076E4F0E2B
:10005000086E660E096E6D0E0A6E7D0E0B6E070E33
:100060000C6E7F0E0D6E6F0E0E6E0F6A0F500A082B
:1000700001E11BD0036A0F50050FE96E000E03204B
:10008000EA6EEFCF10F0946A10C08BFF928080A0D0
:1000900004D00F2A640E106EB5DF928280A204D0C5
:0C00A0000F06640E106EAEDFE1D7030007
:020000040030CA
:0E00000000210C0E000181000FC00FE00F4028
:00000001FF
;PIC18F452
;CRC=0D0F  CREATED="18-Mar-24 15:51"
