:100000002AEF00F00C50016A0B5C03E20BC000F019
:100010000CD0006A080E0D6E0B3600360C50005CDA
:10002000D8B0006E01360D2EF7D71200EA6A090E1D
:10003000E96EEF500EE0010E016E006A002EFED751
:10004000012EFBD74A0E006E002EFED700D0EF2EF9
:10005000F2D71200F86AD09EC180C182C184C196D5
:10006000FF0E926E000E946E800E946E8B6A056A7F
:100070000550090805E3066A076A05C008F040D084
:1000800005500A0805E1066A010E076E086A38D0B5
:1000900005500A0811E2055063080EE3066A05C020
:1000A0000BF00A0E0C6EAEDF01C007F007500A0D10
:1000B000F350055C086E24D00550640805E1010E7C
:1000C000066E076A086A1CD005C00BF0640E0C6E41
:1000D00099DF01C006F00650640DF350055C0A6E0E
:1000E0000B6E0A0E0C6E8EDF01C007F00650640D19
:1000F000F3CF09F007500A0DF3500924055C086E90
:100100000650F60F34E20A0F31EF01F0800E946EC4
:10011000100E8B6E2CD0800E946E110E8B6E27D02D
:10012000800E946E120E8B6E22D0800E946E130E83
:100130008B6E1DD0800E946E140E8B6E18D0800EB8
:10014000946E150E8B6E13D0800E946E160E8B6E01
:100150000ED0800E946E170E8B6E09D0800E946EAA
:10016000180E8B6E04D0800E946E190E8B6EC80E16
:10017000096E5CDF0750F60F34E20A0F48EF01F01A
:10018000800E946E200E8B6E2CD0800E946E210EFD
:100190008B6E27D0800E946E220E8B6E22D0800E36
:1001A000946E230E8B6E1DD0800E946E240E8B6E7B
:1001B00018D0800E946E250E8B6E13D0800E946E28
:1001C000260E8B6E0ED0800E946E270E8B6E09D08D
:1001D000800E946E280E8B6E04D0800E946E290EC5
:1001E0008B6EC80E096E22DF0850F60F34E20A0F3C
:1001F0005FEF01F0800E946E400E8B6E2CD0800E5F
:10020000946E410E8B6E27D0800E946E420E8B6ED4
:1002100022D0800E946E430E8B6E1DD0800E946E95
:10022000440E8B6E18D0800E946E450E8B6E13D0DC
:10023000800E946E460E8B6E0ED0800E946E470E1E
:100240008B6E09D0800E946E480E8B6E04D0800E9B
:10025000946E490E8B6EC80E096EE8DE052A08D72B
:100260000300E824F76AF7367D0FF66E020EF722D8
:100270000A00F550FA6E0800F550F96E0C011601EF
:1002800020012A0134013E01480152015C0166014E
:10029000E824F76AF736AB0FF66E020EF7220A0073
:1002A000F550FA6E0800F550F96E80018A0194014C
:1002B0009E01A801B201BC01C601D001DA01E82407
:1002C000F76AF736D90FF66E020EF7220A00F550DC
:1002D000FA6E0800F550F96EF401FE0108021202F0
:0C02E0001C02260230023A0244024E02C8
:020000040030CA
:0E00000000210C0E000181000FC00FE00F4028
:00000001FF
;PIC18F452
;CRC=0652  CREATED="19-Mar-24 15:35"
