:040000009CEF00F081
:08000800046ED8CF05F0E0CF33
:1000100006F00001E9CF0CF0EACF07F0E1CF08F0DD
:10002000E2CF09F0D9CF0AF0DACF0BF0F3CF12F01C
:10003000F4CF13F0FACF14F000C00EF001C00FF0AF
:1000400002C010F003C011F0F2A62AEF00F0F2B0E7
:100050005FEF00F00EC000F00FC001F010C002F022
:1000600011C003F00CC0E9FF07C0EAFF078E08C00B
:10007000E1FF09C0E2FF0AC0D9FF0BC0DAFF12C0DE
:10008000F3FF13C0F4FF14C0FAFF045006C0E0FFF2
:1000900005C0D8FF1000EA6A1A0EE96EEF500EE0B4
:1000A000010E016E006A002EFED7012EFBD74A0E0C
:1000B000006E002EFED700D0EF2EF2D71200946A09
:1000C0008B6A938881A80BD094988B88140E196E34
:1000D000FA0E1A6EE0DF192EFBD794988B98938A4C
:1000E00081AA0BD0949A8B8A140E196EFA0E1A6E8E
:1000F000D2DF192EFBD7949A8B9A938C81AC0BD0BC
:10010000949C8B8C140E196EFA0E1A6EC4DF192E85
:10011000FBD7949C8B9C938E81AE0BD0949E8B8E40
:10012000140E196EFA0E1A6EB6DF192EFBD7949EB6
:100130008B9EF2902AEF00F0F86AD09E078EC18065
:10014000C182C184C196FF0E936E000E946E946AB4
:100150008B6AF286C00EF212946A8B68040E176ED8
:10016000166AF2BE168EF29EFA0E1A6E94DF16BE54
:10017000F28E172EF5D7946A8B6A040E176E166AE4
:10018000F2BE168EF29EFA0E1A6E85DF16BEF28E43
:08019000172EF5D7E1D703009B
:020000040030CA
:0E00000000210C0E000181000FC00FE00F4028
:00000001FF
;PIC18F452
;CRC=C858  CREATED="29-Nis-24 16:00"
